{
  "contractName": "IexecInterface",
  "abi": [
    {
      "constant": true,
      "inputs": [],
      "name": "iexecClerk",
      "outputs": [
        {
          "name": "",
          "type": "address"
        }
      ],
      "payable": false,
      "stateMutability": "view",
      "type": "function"
    },
    {
      "constant": true,
      "inputs": [],
      "name": "iexecHub",
      "outputs": [
        {
          "name": "",
          "type": "address"
        }
      ],
      "payable": false,
      "stateMutability": "view",
      "type": "function"
    },
    {
      "inputs": [
        {
          "name": "_iexecHubAddr",
          "type": "address"
        }
      ],
      "payable": false,
      "stateMutability": "nonpayable",
      "type": "constructor"
    }
  ],
  "bytecode": "0x608060405234801561001057600080fd5b50604051602080610542833981018060405261002f9190810190610374565b60006100408261035460201b60201c565b111561006657600080546001600160a01b0319166001600160a01b0383161790556102a9565b600061008b731383c16c927c4a853684d1a9c676986f25e2211161035460201b60201c565b11156100bc57600080546001600160a01b031916731383c16c927c4a853684d1a9c676986f25e221111790556102a9565b60006100e173dbe30645ea7d216c31d09f8c5736fe74de774e6361035460201b60201c565b111561011257600080546001600160a01b03191673dbe30645ea7d216c31d09f8c5736fe74de774e631790556102a9565b6000610124600061035460201b60201c565b111561013f57600080546001600160a01b03191690556102a9565b600061016473b3901d04cf645747b99dbbe8f2ee9cb41a89cebf61035460201b60201c565b111561019557600080546001600160a01b03191673b3901d04cf645747b99dbbe8f2ee9cb41a89cebf1790556102a9565b60006101ba7399d8717a84d1e97422d04d9a2a8269403847075361035460201b60201c565b11156101eb57600080546001600160a01b0319167399d8717a84d1e97422d04d9a2a826940384707531790556102a9565b60006101fd600061035460201b60201c565b111561021857600080546001600160a01b03191690556102a9565b600061023d734735e4bc6b143099fdf14224a82429aa34ba4d0461035460201b60201c565b111561026e57600080546001600160a01b031916734735e4bc6b143099fdf14224a82429aa34ba4d041790556102a9565b6040517f08c379a00000000000000000000000000000000000000000000000000000000081526004016102a0906103f1565b60405180910390fd5b6000809054906101000a90046001600160a01b03166001600160a01b031663b01c68466040518163ffffffff1660e01b815260040160206040518083038186803b1580156102f657600080fd5b505afa15801561030a573d6000803e3d6000fd5b505050506040513d601f19601f8201168201806040525061032e919081019061039a565b600180546001600160a01b0319166001600160a01b03929092169190911790555061044c565b3b90565b80516103638161042c565b92915050565b805161036381610443565b60006020828403121561038657600080fd5b60006103928484610358565b949350505050565b6000602082840312156103ac57600080fd5b60006103928484610369565b60006103c5601383610401565b7f696e76616c69642d6875622d6164647265737300000000000000000000000000815260200192915050565b60208082528101610363816103b8565b90815260200190565b600061036382610420565b60006103638261040a565b6001600160a01b031690565b6104358161040a565b811461044057600080fd5b50565b61043581610415565b60e88061045a6000396000f3fe6080604052348015600f57600080fd5b506004361060325760003560e01c80631ce3aa0d146037578063a41f45e9146051575b600080fd5b603d6057565b604051604891906082565b60405180910390f35b603d6066565b6001546001600160a01b031681565b6000546001600160a01b031681565b607c8160a0565b82525050565b60208101608e82846075565b92915050565b6001600160a01b031690565b6000608e826000608e82609456fea265627a7a72305820011c93724f000b2d89753cf9a796d1a662b8293b8c87a7796bbf71c511c0431c6c6578706572696d656e74616cf50037",
  "source": "pragma solidity ^0.5.0;\npragma experimental ABIEncoderV2;\n\nimport \"./IexecHub.sol\";\nimport \"./IexecClerk.sol\";\n\n\ncontract IexecInterface\n{\n\taddress constant IEXEC_HUB_MAINNET   = 0x1383c16c927c4A853684d1a9c676986f25E22111;\n\taddress constant IEXEC_HUB_ROPSTEN   = 0xDbe30645EA7d216c31D09f8c5736FE74de774e63;\n\taddress constant IEXEC_HUB_RINKEBY   = 0x0000000000000000000000000000000000000000;\n\taddress constant IEXEC_HUB_KOVAN     = 0xb3901d04CF645747b99DBbe8f2eE9cb41A89CeBF;\n\taddress constant IEXEC_HUB_GOERLI    = 0x99d8717A84d1E97422d04d9a2a82694038470753;\n\taddress constant IEXEC_HUB_BELLECOUR = 0x0000000000000000000000000000000000000000;\n\taddress constant IEXEC_HUB_VIVIANI   = 0x4735e4BC6B143099fDF14224a82429aA34ba4d04;\n\n\tIexecHub   public iexecHub;\n\tIexecClerk public iexecClerk;\n\n\tconstructor(address _iexecHubAddr)\n\tpublic\n\t{\n\t\tif      (_getCodeSize(_iexecHubAddr      ) > 0) { iexecHub = IexecHub(_iexecHubAddr      ); }\n\t\telse if (_getCodeSize(IEXEC_HUB_MAINNET  ) > 0) { iexecHub = IexecHub(IEXEC_HUB_MAINNET  ); }\n\t\telse if (_getCodeSize(IEXEC_HUB_ROPSTEN  ) > 0) { iexecHub = IexecHub(IEXEC_HUB_ROPSTEN  ); }\n\t\telse if (_getCodeSize(IEXEC_HUB_RINKEBY  ) > 0) { iexecHub = IexecHub(IEXEC_HUB_RINKEBY  ); }\n\t\telse if (_getCodeSize(IEXEC_HUB_KOVAN    ) > 0) { iexecHub = IexecHub(IEXEC_HUB_KOVAN    ); }\n\t\telse if (_getCodeSize(IEXEC_HUB_GOERLI   ) > 0) { iexecHub = IexecHub(IEXEC_HUB_GOERLI   ); }\n\t\telse if (_getCodeSize(IEXEC_HUB_BELLECOUR) > 0) { iexecHub = IexecHub(IEXEC_HUB_BELLECOUR); }\n\t\telse if (_getCodeSize(IEXEC_HUB_VIVIANI  ) > 0) { iexecHub = IexecHub(IEXEC_HUB_VIVIANI  ); }\n\t\telse                                            { revert(\"invalid-hub-address\");            }\n\t\tiexecClerk = IexecClerk(iexecHub.iexecclerk());\n\t}\n\n\tfunction _getCodeSize(address _addr)\n\tinternal view returns (uint _size)\n\t{\n\t\tassembly { _size := extcodesize(_addr) }\n\t}\n}\n",
  "sourcePath": "/home/amxx/Work/iExec/code/iexec-poco-interface/contracts/IexecInterface.sol",
  "compiler": {
    "name": "solc",
    "version": "0.5.8+commit.23d335f2.Emscripten.clang"
  },
  "schemaVersion": "3.0.16",
  "updatedAt": "2019-11-26T09:30:25.235Z",
  "devdoc": {
    "methods": {}
  },
  "userdoc": {
    "methods": {}
  }
}