{
  "contractName": "IexecODBLibOrders",
  "abi": [
    {
      "constant": true,
      "inputs": [],
      "name": "APPORDER_TYPEHASH",
      "outputs": [
        {
          "name": "",
          "type": "bytes32"
        }
      ],
      "payable": false,
      "stateMutability": "view",
      "type": "function"
    },
    {
      "constant": true,
      "inputs": [],
      "name": "WORKERPOOLORDER_TYPEHASH",
      "outputs": [
        {
          "name": "",
          "type": "bytes32"
        }
      ],
      "payable": false,
      "stateMutability": "view",
      "type": "function"
    },
    {
      "constant": true,
      "inputs": [],
      "name": "DATASETORDER_TYPEHASH",
      "outputs": [
        {
          "name": "",
          "type": "bytes32"
        }
      ],
      "payable": false,
      "stateMutability": "view",
      "type": "function"
    },
    {
      "constant": true,
      "inputs": [],
      "name": "REQUESTORDER_TYPEHASH",
      "outputs": [
        {
          "name": "",
          "type": "bytes32"
        }
      ],
      "payable": false,
      "stateMutability": "view",
      "type": "function"
    },
    {
      "constant": true,
      "inputs": [],
      "name": "EIP712DOMAIN_TYPEHASH",
      "outputs": [
        {
          "name": "",
          "type": "bytes32"
        }
      ],
      "payable": false,
      "stateMutability": "view",
      "type": "function"
    },
    {
      "constant": true,
      "inputs": [
        {
          "components": [
            {
              "name": "app",
              "type": "address"
            },
            {
              "name": "appprice",
              "type": "uint256"
            },
            {
              "name": "volume",
              "type": "uint256"
            },
            {
              "name": "tag",
              "type": "bytes32"
            },
            {
              "name": "datasetrestrict",
              "type": "address"
            },
            {
              "name": "workerpoolrestrict",
              "type": "address"
            },
            {
              "name": "requesterrestrict",
              "type": "address"
            },
            {
              "name": "salt",
              "type": "bytes32"
            },
            {
              "name": "sign",
              "type": "bytes"
            }
          ],
          "name": "_apporder",
          "type": "tuple"
        }
      ],
      "name": "hash",
      "outputs": [
        {
          "name": "apphash",
          "type": "bytes32"
        }
      ],
      "payable": false,
      "stateMutability": "pure",
      "type": "function"
    },
    {
      "constant": true,
      "inputs": [
        {
          "components": [
            {
              "name": "app",
              "type": "address"
            },
            {
              "name": "appmaxprice",
              "type": "uint256"
            },
            {
              "name": "dataset",
              "type": "address"
            },
            {
              "name": "datasetmaxprice",
              "type": "uint256"
            },
            {
              "name": "workerpool",
              "type": "address"
            },
            {
              "name": "workerpoolmaxprice",
              "type": "uint256"
            },
            {
              "name": "requester",
              "type": "address"
            },
            {
              "name": "volume",
              "type": "uint256"
            },
            {
              "name": "tag",
              "type": "bytes32"
            },
            {
              "name": "category",
              "type": "uint256"
            },
            {
              "name": "trust",
              "type": "uint256"
            },
            {
              "name": "beneficiary",
              "type": "address"
            },
            {
              "name": "callback",
              "type": "address"
            },
            {
              "name": "params",
              "type": "string"
            },
            {
              "name": "salt",
              "type": "bytes32"
            },
            {
              "name": "sign",
              "type": "bytes"
            }
          ],
          "name": "_requestorder",
          "type": "tuple"
        }
      ],
      "name": "hash",
      "outputs": [
        {
          "name": "requesthash",
          "type": "bytes32"
        }
      ],
      "payable": false,
      "stateMutability": "pure",
      "type": "function"
    },
    {
      "constant": true,
      "inputs": [
        {
          "components": [
            {
              "name": "dataset",
              "type": "address"
            },
            {
              "name": "datasetprice",
              "type": "uint256"
            },
            {
              "name": "volume",
              "type": "uint256"
            },
            {
              "name": "tag",
              "type": "bytes32"
            },
            {
              "name": "apprestrict",
              "type": "address"
            },
            {
              "name": "workerpoolrestrict",
              "type": "address"
            },
            {
              "name": "requesterrestrict",
              "type": "address"
            },
            {
              "name": "salt",
              "type": "bytes32"
            },
            {
              "name": "sign",
              "type": "bytes"
            }
          ],
          "name": "_datasetorder",
          "type": "tuple"
        }
      ],
      "name": "hash",
      "outputs": [
        {
          "name": "datasethash",
          "type": "bytes32"
        }
      ],
      "payable": false,
      "stateMutability": "pure",
      "type": "function"
    },
    {
      "constant": true,
      "inputs": [
        {
          "components": [
            {
              "name": "workerpool",
              "type": "address"
            },
            {
              "name": "workerpoolprice",
              "type": "uint256"
            },
            {
              "name": "volume",
              "type": "uint256"
            },
            {
              "name": "tag",
              "type": "bytes32"
            },
            {
              "name": "category",
              "type": "uint256"
            },
            {
              "name": "trust",
              "type": "uint256"
            },
            {
              "name": "apprestrict",
              "type": "address"
            },
            {
              "name": "datasetrestrict",
              "type": "address"
            },
            {
              "name": "requesterrestrict",
              "type": "address"
            },
            {
              "name": "salt",
              "type": "bytes32"
            },
            {
              "name": "sign",
              "type": "bytes"
            }
          ],
          "name": "_workerpoolorder",
          "type": "tuple"
        }
      ],
      "name": "hash",
      "outputs": [
        {
          "name": "workerpoolhash",
          "type": "bytes32"
        }
      ],
      "payable": false,
      "stateMutability": "pure",
      "type": "function"
    },
    {
      "constant": true,
      "inputs": [
        {
          "components": [
            {
              "name": "name",
              "type": "string"
            },
            {
              "name": "version",
              "type": "string"
            },
            {
              "name": "chainId",
              "type": "uint256"
            },
            {
              "name": "verifyingContract",
              "type": "address"
            }
          ],
          "name": "_domain",
          "type": "tuple"
        }
      ],
      "name": "hash",
      "outputs": [
        {
          "name": "domainhash",
          "type": "bytes32"
        }
      ],
      "payable": false,
      "stateMutability": "pure",
      "type": "function"
    },
    {
      "constant": true,
      "inputs": [
        {
          "name": "_structHash",
          "type": "bytes32"
        },
        {
          "name": "_domainHash",
          "type": "bytes32"
        }
      ],
      "name": "toEthTypedStructHash",
      "outputs": [
        {
          "name": "typedStructHash",
          "type": "bytes32"
        }
      ],
      "payable": false,
      "stateMutability": "pure",
      "type": "function"
    }
  ],
  "bytecode": "0x610aaa610026600b82828239805160001a60731461001957fe5b30600052607381538281f3fe73000000000000000000000000000000000000000030146080604052600436106100b35760003560e01c806358b505861161007b57806358b505861461012257806365db1dbb146101355780636f84d2da1461013d5780639a6f72ee14610145578063c49f91d31461014d578063eca34ccf14610155576100b3565b806304951329146100b85780630813424e146100e1578063176eaa49146100f4578063207dbbfe146101075780632bd4c7341461010f575b600080fd5b6100cb6100c636600461087a565b610168565b6040516100d891906109c8565b60405180910390f35b6100cb6100ef3660046108ec565b61019b565b6100cb610102366004610840565b6101e4565b6100cb610218565b6100cb61011d36600461087a565b61023c565b6100cb610130366004610921565b61026f565b6100cb6102a2565b6100cb6102c6565b6100cb6102ea565b6100cb61030e565b6100cb6101633660046108b7565b610332565b601f190180517f60815a0eeec47dddf1615fe53b31d016c31444e01b9d796db365443a6445d00882526101208220915290565b6101a08101805180516020820120601f1990930180517ff24e853034a3a450aba845a82914fbb564ad85accca6cf62be112a154520fae082529383526102008120939052905290565b600081836040516020016101f9929190610997565b6040516020818303038152906040528051906020012090505b92915050565b7f60815a0eeec47dddf1615fe53b31d016c31444e01b9d796db365443a6445d00881565b601f190180517f6cfc932a5a3d22c4359295b9f433edff52b60703fa47690a04a83e40933dd47c82526101208220915290565b601f190180517faa3429fb281b34691803133d3d978a75bb77c617ed6bc9aa162b9b30920022bb82526101608220915290565b7faa3429fb281b34691803133d3d978a75bb77c617ed6bc9aa162b9b30920022bb81565b7f6cfc932a5a3d22c4359295b9f433edff52b60703fa47690a04a83e40933dd47c81565b7ff24e853034a3a450aba845a82914fbb564ad85accca6cf62be112a154520fae081565b7f8b73c3c69bb8fe3d512ecc4cf759cc79239f7b179b0ffacaa9a75d522b39400f81565b805180516020808301919091208184018051805193810193909320601f19860180517f8b73c3c69bb8fe3d512ecc4cf759cc79239f7b179b0ffacaa9a75d522b39400f825293875290825260a0812092905292909352905290565b803561021281610a50565b803561021281610a67565b600082601f8301126103b457600080fd5b81356103c76103c2826109fd565b6109d6565b915080825260208301602083018583830111156103e357600080fd5b6103ee838284610a44565b50505092915050565b6000610120828403121561040a57600080fd5b6104156101206109d6565b90506000610423848461038d565b825250602061043484848301610398565b602083015250604061044884828501610398565b604083015250606061045c84828501610398565b60608301525060806104708482850161038d565b60808301525060a06104848482850161038d565b60a08301525060c06104988482850161038d565b60c08301525060e06104ac84828501610398565b60e08301525061010082013567ffffffffffffffff8111156104cd57600080fd5b6104d9848285016103a3565b6101008301525092915050565b6000608082840312156104f857600080fd5b61050260806109d6565b9050813567ffffffffffffffff81111561051b57600080fd5b610527848285016103a3565b825250602082013567ffffffffffffffff81111561054457600080fd5b610550848285016103a3565b602083015250604061056484828501610398565b60408301525060606105788482850161038d565b60608301525092915050565b6000610200828403121561059757600080fd5b6105a26102006109d6565b905060006105b0848461038d565b82525060206105c184848301610398565b60208301525060406105d58482850161038d565b60408301525060606105e984828501610398565b60608301525060806105fd8482850161038d565b60808301525060a061061184828501610398565b60a08301525060c06106258482850161038d565b60c08301525060e061063984828501610398565b60e08301525061010061064e84828501610398565b6101008301525061012061066484828501610398565b6101208301525061014061067a84828501610398565b610140830152506101606106908482850161038d565b610160830152506101806106a68482850161038d565b610180830152506101a082013567ffffffffffffffff8111156106c857600080fd5b6106d4848285016103a3565b6101a0830152506101c06106ea84828501610398565b6101c0830152506101e082013567ffffffffffffffff81111561070c57600080fd5b610718848285016103a3565b6101e08301525092915050565b6000610160828403121561073857600080fd5b6107436101606109d6565b90506000610751848461038d565b825250602061076284848301610398565b602083015250604061077684828501610398565b604083015250606061078a84828501610398565b606083015250608061079e84828501610398565b60808301525060a06107b284828501610398565b60a08301525060c06107c68482850161038d565b60c08301525060e06107da8482850161038d565b60e0830152506101006107ef8482850161038d565b6101008301525061012061080584828501610398565b6101208301525061014082013567ffffffffffffffff81111561082757600080fd5b610833848285016103a3565b6101408301525092915050565b6000806040838503121561085357600080fd5b600061085f8585610398565b925050602061087085828601610398565b9150509250929050565b60006020828403121561088c57600080fd5b813567ffffffffffffffff8111156108a357600080fd5b6108af848285016103f7565b949350505050565b6000602082840312156108c957600080fd5b813567ffffffffffffffff8111156108e057600080fd5b6108af848285016104e6565b6000602082840312156108fe57600080fd5b813567ffffffffffffffff81111561091557600080fd5b6108af84828501610584565b60006020828403121561093357600080fd5b813567ffffffffffffffff81111561094a57600080fd5b6108af84828501610725565b61095f81610a35565b82525050565b61095f61097182610a35565b610a35565b6000610983600283610a25565b600160f01b61190102815260020192915050565b60006109a282610976565b91506109ae8285610965565b6020820191506109be8284610965565b5060200192915050565b602081016102128284610956565b60405181810167ffffffffffffffff811182821017156109f557600080fd5b604052919050565b600067ffffffffffffffff821115610a1457600080fd5b506020601f91909101601f19160190565b919050565b600061021282610a38565b90565b6001600160a01b031690565b82818337506000910152565b610a5981610a2a565b8114610a6457600080fd5b50565b610a5981610a3556fea265627a7a72305820bea7553cfe59d2f9fcd11de1462ac533228042fb3dc7ab6550249473685aadb36c6578706572696d656e74616cf50037",
  "source": "pragma solidity ^0.5.8;\npragma experimental ABIEncoderV2;\n\nlibrary IexecODBLibOrders\n{\n\t// bytes32 public constant    EIP712DOMAIN_TYPEHASH = keccak256(\"EIP712Domain(string name,string version,uint256 chainId,address verifyingContract)\");\n\t// bytes32 public constant        APPORDER_TYPEHASH = keccak256(\"AppOrder(address app,uint256 appprice,uint256 volume,bytes32 tag,address datasetrestrict,address workerpoolrestrict,address requesterrestrict,bytes32 salt)\");\n\t// bytes32 public constant    DATASETORDER_TYPEHASH = keccak256(\"DatasetOrder(address dataset,uint256 datasetprice,uint256 volume,bytes32 tag,address apprestrict,address workerpoolrestrict,address requesterrestrict,bytes32 salt)\");\n\t// bytes32 public constant WORKERPOOLORDER_TYPEHASH = keccak256(\"WorkerpoolOrder(address workerpool,uint256 workerpoolprice,uint256 volume,bytes32 tag,uint256 category,uint256 trust,address apprestrict,address datasetrestrict,address requesterrestrict,bytes32 salt)\");\n\t// bytes32 public constant    REQUESTORDER_TYPEHASH = keccak256(\"RequestOrder(address app,uint256 appmaxprice,address dataset,uint256 datasetmaxprice,address workerpool,uint256 workerpoolmaxprice,address requester,uint256 volume,bytes32 tag,uint256 category,uint256 trust,address beneficiary,address callback,string params,bytes32 salt)\");\n\tbytes32 public constant    EIP712DOMAIN_TYPEHASH = 0x8b73c3c69bb8fe3d512ecc4cf759cc79239f7b179b0ffacaa9a75d522b39400f;\n\tbytes32 public constant        APPORDER_TYPEHASH = 0x60815a0eeec47dddf1615fe53b31d016c31444e01b9d796db365443a6445d008;\n\tbytes32 public constant    DATASETORDER_TYPEHASH = 0x6cfc932a5a3d22c4359295b9f433edff52b60703fa47690a04a83e40933dd47c;\n\tbytes32 public constant WORKERPOOLORDER_TYPEHASH = 0xaa3429fb281b34691803133d3d978a75bb77c617ed6bc9aa162b9b30920022bb;\n\tbytes32 public constant    REQUESTORDER_TYPEHASH = 0xf24e853034a3a450aba845a82914fbb564ad85accca6cf62be112a154520fae0;\n\n\tstruct EIP712Domain\n\t{\n\t\tstring  name;\n\t\tstring  version;\n\t\tuint256 chainId;\n\t\taddress verifyingContract;\n\t}\n\tstruct AppOrder\n\t{\n\t\taddress app;\n\t\tuint256 appprice;\n\t\tuint256 volume;\n\t\tbytes32 tag;\n\t\taddress datasetrestrict;\n\t\taddress workerpoolrestrict;\n\t\taddress requesterrestrict;\n\t\tbytes32 salt;\n\t\tbytes   sign;\n\t}\n\tstruct DatasetOrder\n\t{\n\t\taddress dataset;\n\t\tuint256 datasetprice;\n\t\tuint256 volume;\n\t\tbytes32 tag;\n\t\taddress apprestrict;\n\t\taddress workerpoolrestrict;\n\t\taddress requesterrestrict;\n\t\tbytes32 salt;\n\t\tbytes   sign;\n\t}\n\tstruct WorkerpoolOrder\n\t{\n\t\taddress workerpool;\n\t\tuint256 workerpoolprice;\n\t\tuint256 volume;\n\t\tbytes32 tag;\n\t\tuint256 category;\n\t\tuint256 trust;\n\t\taddress apprestrict;\n\t\taddress datasetrestrict;\n\t\taddress requesterrestrict;\n\t\tbytes32 salt;\n\t\tbytes   sign;\n\t}\n\tstruct RequestOrder\n\t{\n\t\taddress app;\n\t\tuint256 appmaxprice;\n\t\taddress dataset;\n\t\tuint256 datasetmaxprice;\n\t\taddress workerpool;\n\t\tuint256 workerpoolmaxprice;\n\t\taddress requester;\n\t\tuint256 volume;\n\t\tbytes32 tag;\n\t\tuint256 category;\n\t\tuint256 trust;\n\t\taddress beneficiary;\n\t\taddress callback;\n\t\tstring  params;\n\t\tbytes32 salt;\n\t\tbytes   sign;\n\t}\n\n\tfunction hash(EIP712Domain memory _domain)\n\tpublic pure returns (bytes32 domainhash)\n\t{\n\t\t/**\n\t\t * Readeable but expensive\n\t\t */\n\t\t// return keccak256(abi.encode(\n\t\t// \tEIP712DOMAIN_TYPEHASH\n\t\t// , keccak256(bytes(_domain.name))\n\t\t// , keccak256(bytes(_domain.version))\n\t\t// , _domain.chainId\n\t\t// , _domain.verifyingContract\n\t\t// ));\n\n\t\t// Compute sub-hashes\n\t\tbytes32 typeHash    = EIP712DOMAIN_TYPEHASH;\n\t\tbytes32 nameHash    = keccak256(bytes(_domain.name));\n\t\tbytes32 versionHash = keccak256(bytes(_domain.version));\n\t\tassembly {\n\t\t\t// Back up select memory\n\t\t\tlet temp1 := mload(sub(_domain, 0x20))\n\t\t\tlet temp2 := mload(add(_domain, 0x00))\n\t\t\tlet temp3 := mload(add(_domain, 0x20))\n\t\t\t// Write typeHash and sub-hashes\n\t\t\tmstore(sub(_domain, 0x20),    typeHash)\n\t\t\tmstore(add(_domain, 0x00),    nameHash)\n\t\t\tmstore(add(_domain, 0x20), versionHash)\n\t\t\t// Compute hash\n\t\t\tdomainhash := keccak256(sub(_domain, 0x20), 0xA0) // 160 = 32 + 128\n\t\t\t// Restore memory\n\t\t\tmstore(sub(_domain, 0x20), temp1)\n\t\t\tmstore(add(_domain, 0x00), temp2)\n\t\t\tmstore(add(_domain, 0x20), temp3)\n\t\t}\n\t}\n\tfunction hash(AppOrder memory _apporder)\n\tpublic pure returns (bytes32 apphash)\n\t{\n\t\t/**\n\t\t * Readeable but expensive\n\t\t */\n\t\t// return keccak256(abi.encode(\n\t\t// \tAPPORDER_TYPEHASH\n\t\t// , _apporder.app\n\t\t// , _apporder.appprice\n\t\t// , _apporder.volume\n\t\t// , _apporder.tag\n\t\t// , _apporder.datasetrestrict\n\t\t// , _apporder.workerpoolrestrict\n\t\t// , _apporder.requesterrestrict\n\t\t// , _apporder.salt\n\t\t// ));\n\n\t\t// Compute sub-hashes\n\t\tbytes32 typeHash = APPORDER_TYPEHASH;\n\t\tassembly {\n\t\t\t// Back up select memory\n\t\t\tlet temp1 := mload(sub(_apporder, 0x20))\n\t\t\t// Write typeHash and sub-hashes\n\t\t\tmstore(sub(_apporder, 0x20), typeHash)\n\t\t\t// Compute hash\n\t\t\tapphash := keccak256(sub(_apporder, 0x20), 0x120) // 288 = 32 + 256\n\t\t\t// Restore memory\n\t\t\tmstore(sub(_apporder, 0x20), temp1)\n\t\t}\n\t}\n\tfunction hash(DatasetOrder memory _datasetorder)\n\tpublic pure returns (bytes32 datasethash)\n\t{\n\t\t/**\n\t\t * Readeable but expensive\n\t\t */\n\t\t// return keccak256(abi.encode(\n\t\t// \tDATASETORDER_TYPEHASH\n\t\t// , _datasetorder.dataset\n\t\t// , _datasetorder.datasetprice\n\t\t// , _datasetorder.volume\n\t\t// , _datasetorder.tag\n\t\t// , _datasetorder.apprestrict\n\t\t// , _datasetorder.workerpoolrestrict\n\t\t// , _datasetorder.requesterrestrict\n\t\t// , _datasetorder.salt\n\t\t// ));\n\n\t\t// Compute sub-hashes\n\t\tbytes32 typeHash = DATASETORDER_TYPEHASH;\n\t\tassembly {\n\t\t\t// Back up select memory\n\t\t\tlet temp1 := mload(sub(_datasetorder, 0x20))\n\t\t\t// Write typeHash and sub-hashes\n\t\t\tmstore(sub(_datasetorder, 0x20), typeHash)\n\t\t\t// Compute hash\n\t\t\tdatasethash := keccak256(sub(_datasetorder, 0x20), 0x120) // 288 = 32 + 256\n\t\t\t// Restore memory\n\t\t\tmstore(sub(_datasetorder, 0x20), temp1)\n\t\t}\n\t}\n\tfunction hash(WorkerpoolOrder memory _workerpoolorder)\n\tpublic pure returns (bytes32 workerpoolhash)\n\t{\n\t\t/**\n\t\t * Readeable but expensive\n\t\t */\n\t\t// return keccak256(abi.encode(\n\t\t// \tWORKERPOOLORDER_TYPEHASH\n\t\t// , _workerpoolorder.workerpool\n\t\t// , _workerpoolorder.workerpoolprice\n\t\t// , _workerpoolorder.volume\n\t\t// , _workerpoolorder.tag\n\t\t// , _workerpoolorder.category\n\t\t// , _workerpoolorder.trust\n\t\t// , _workerpoolorder.apprestrict\n\t\t// , _workerpoolorder.datasetrestrict\n\t\t// , _workerpoolorder.requesterrestrict\n\t\t// , _workerpoolorder.salt\n\t\t// ));\n\n\t\t// Compute sub-hashes\n\t\tbytes32 typeHash = WORKERPOOLORDER_TYPEHASH;\n\t\tassembly {\n\t\t\t// Back up select memory\n\t\t\tlet temp1 := mload(sub(_workerpoolorder, 0x20))\n\t\t\t// Write typeHash and sub-hashes\n\t\t\tmstore(sub(_workerpoolorder, 0x20), typeHash)\n\t\t\t// Compute hash\n\t\t\tworkerpoolhash := keccak256(sub(_workerpoolorder, 0x20), 0x160) // 352 = 32 + 320\n\t\t\t// Restore memory\n\t\t\tmstore(sub(_workerpoolorder, 0x20), temp1)\n\t\t}\n\t}\n\tfunction hash(RequestOrder memory _requestorder)\n\tpublic pure returns (bytes32 requesthash)\n\t{\n\t\t/**\n\t\t * Readeable but expensive\n\t\t */\n\t\t//return keccak256(abi.encodePacked(\n\t\t//\tabi.encode(\n\t\t//\t\tREQUESTORDER_TYPEHASH\n\t\t//\t, _requestorder.app\n\t\t//\t, _requestorder.appmaxprice\n\t\t//\t, _requestorder.dataset\n\t\t//\t, _requestorder.datasetmaxprice\n\t\t//\t, _requestorder.workerpool\n\t\t//\t, _requestorder.workerpoolmaxprice\n\t\t//\t, _requestorder.requester\n\t\t//\t, _requestorder.volume\n\t\t//\t, _requestorder.tag\n\t\t//\t, _requestorder.category\n\t\t//\t, _requestorder.trust\n\t\t//\t, _requestorder.beneficiary\n\t\t//\t, _requestorder.callback\n\t\t//\t, keccak256(bytes(_requestorder.params))\n\t\t//\t, _requestorder.salt\n\t\t//\t)\n\t\t//));\n\n\t\t// Compute sub-hashes\n\t\tbytes32 typeHash = REQUESTORDER_TYPEHASH;\n\t\tbytes32 paramsHash = keccak256(bytes(_requestorder.params));\n\t\tassembly {\n\t\t\t// Back up select memory\n\t\t\tlet temp1 := mload(sub(_requestorder, 0x020))\n\t\t\tlet temp2 := mload(add(_requestorder, 0x1A0))\n\t\t\t// Write typeHash and sub-hashes\n\t\t\tmstore(sub(_requestorder, 0x020), typeHash)\n\t\t\tmstore(add(_requestorder, 0x1A0), paramsHash)\n\t\t\t// Compute hash\n\t\t\trequesthash := keccak256(sub(_requestorder, 0x20), 0x200) // 512 = 32 + 480\n\t\t\t// Restore memory\n\t\t\tmstore(sub(_requestorder, 0x020), temp1)\n\t\t\tmstore(add(_requestorder, 0x1A0), temp2)\n\t\t}\n\t}\n\n\tfunction toEthTypedStructHash(bytes32 _structHash, bytes32 _domainHash)\n\tpublic pure returns (bytes32 typedStructHash)\n\t{\n\t\treturn keccak256(abi.encodePacked(\"\\x19\\x01\", _domainHash, _structHash));\n\t}\n}\n",
  "sourcePath": "/home/amxx/Work/iExec/code/PoCo-interface/contracts/libs/IexecODBLibOrders.sol",
  "compiler": {
    "name": "solc",
    "version": "0.5.8+commit.23d335f2.Emscripten.clang"
  },
  "schemaVersion": "3.0.16",
  "updatedAt": "2019-11-05T13:33:37.805Z",
  "devdoc": {
    "methods": {}
  },
  "userdoc": {
    "methods": {}
  }
}