{
  "contractName": "IexecInterface",
  "abi": [
    {
      "constant": true,
      "inputs": [],
      "name": "iexecClerk",
      "outputs": [
        {
          "name": "",
          "type": "address"
        }
      ],
      "payable": false,
      "stateMutability": "view",
      "type": "function"
    },
    {
      "constant": true,
      "inputs": [],
      "name": "iexecHub",
      "outputs": [
        {
          "name": "",
          "type": "address"
        }
      ],
      "payable": false,
      "stateMutability": "view",
      "type": "function"
    },
    {
      "inputs": [
        {
          "name": "_iexecHubAddr",
          "type": "address"
        }
      ],
      "payable": false,
      "stateMutability": "nonpayable",
      "type": "constructor"
    }
  ],
  "bytecode": "0x608060405234801561001057600080fd5b506040516020806104f0833981018060405261002f9190810190610322565b60006100408261030260201b60201c565b111561006657600080546001600160a01b0319166001600160a01b038316179055610257565b600061008b731383c16c927c4a853684d1a9c676986f25e2211161030260201b60201c565b11156100bc57600080546001600160a01b031916731383c16c927c4a853684d1a9c676986f25e22111179055610257565b60006100e173dbe30645ea7d216c31d09f8c5736fe74de774e6361030260201b60201c565b111561011257600080546001600160a01b03191673dbe30645ea7d216c31d09f8c5736fe74de774e63179055610257565b6000610124600061030260201b60201c565b111561013f57600080546001600160a01b0319169055610257565b600061016473b3901d04cf645747b99dbbe8f2ee9cb41a89cebf61030260201b60201c565b111561019557600080546001600160a01b03191673b3901d04cf645747b99dbbe8f2ee9cb41a89cebf179055610257565b60006101a7600061030260201b60201c565b11156101c257600080546001600160a01b0319169055610257565b60006101d4600061030260201b60201c565b11156101ef57600080546001600160a01b0319169055610257565b6000610201600061030260201b60201c565b111561021c57600080546001600160a01b0319169055610257565b6040517f08c379a000000000000000000000000000000000000000000000000000000000815260040161024e9061039f565b60405180910390fd5b6000809054906101000a90046001600160a01b03166001600160a01b031663b01c68466040518163ffffffff1660e01b815260040160206040518083038186803b1580156102a457600080fd5b505afa1580156102b8573d6000803e3d6000fd5b505050506040513d601f19601f820116820180604052506102dc9190810190610348565b600180546001600160a01b0319166001600160a01b0392909216919091179055506103fa565b3b90565b8051610311816103da565b92915050565b8051610311816103f1565b60006020828403121561033457600080fd5b60006103408484610306565b949350505050565b60006020828403121561035a57600080fd5b60006103408484610317565b60006103736013836103af565b7f696e76616c69642d6875622d6164647265737300000000000000000000000000815260200192915050565b6020808252810161031181610366565b90815260200190565b6000610311826103ce565b6000610311826103b8565b6001600160a01b031690565b6103e3816103b8565b81146103ee57600080fd5b50565b6103e3816103c3565b60e8806104086000396000f3fe6080604052348015600f57600080fd5b506004361060325760003560e01c80631ce3aa0d146037578063a41f45e9146051575b600080fd5b603d6057565b604051604891906082565b60405180910390f35b603d6066565b6001546001600160a01b031681565b6000546001600160a01b031681565b607c8160a0565b82525050565b60208101608e82846075565b92915050565b6001600160a01b031690565b6000608e826000608e82609456fea265627a7a723058204c1808f688a10abdc449bf0b7a89c7d75108ba26cecaf2f73de762e165dad74d6c6578706572696d656e74616cf50037",
  "source": "pragma solidity ^0.5.0;\npragma experimental ABIEncoderV2;\n\nimport \"./IexecHub.sol\";\nimport \"./IexecClerk.sol\";\n\n\ncontract IexecInterface\n{\n\taddress constant IEXEC_HUB_MAINNET   = 0x1383c16c927c4A853684d1a9c676986f25E22111;\n\taddress constant IEXEC_HUB_ROPSTEN   = 0xDbe30645EA7d216c31D09f8c5736FE74de774e63;\n\taddress constant IEXEC_HUB_RINKEBY   = 0x0000000000000000000000000000000000000000;\n\taddress constant IEXEC_HUB_KOVAN     = 0xb3901d04CF645747b99DBbe8f2eE9cb41A89CeBF;\n\taddress constant IEXEC_HUB_GOERLI    = 0x0000000000000000000000000000000000000000;\n\taddress constant IEXEC_HUB_BELLECOUR = 0x0000000000000000000000000000000000000000;\n\taddress constant IEXEC_HUB_VIVIANI   = 0x0000000000000000000000000000000000000000;\n\n\tIexecHub   public iexecHub;\n\tIexecClerk public iexecClerk;\n\n\tconstructor(address _iexecHubAddr)\n\tpublic\n\t{\n\t\tif      (_getCodeSize(_iexecHubAddr      ) > 0) { iexecHub = IexecHub(_iexecHubAddr      ); }\n\t\telse if (_getCodeSize(IEXEC_HUB_MAINNET  ) > 0) { iexecHub = IexecHub(IEXEC_HUB_MAINNET  ); }\n\t\telse if (_getCodeSize(IEXEC_HUB_ROPSTEN  ) > 0) { iexecHub = IexecHub(IEXEC_HUB_ROPSTEN  ); }\n\t\telse if (_getCodeSize(IEXEC_HUB_RINKEBY  ) > 0) { iexecHub = IexecHub(IEXEC_HUB_RINKEBY  ); }\n\t\telse if (_getCodeSize(IEXEC_HUB_KOVAN    ) > 0) { iexecHub = IexecHub(IEXEC_HUB_KOVAN    ); }\n\t\telse if (_getCodeSize(IEXEC_HUB_GOERLI   ) > 0) { iexecHub = IexecHub(IEXEC_HUB_GOERLI   ); }\n\t\telse if (_getCodeSize(IEXEC_HUB_BELLECOUR) > 0) { iexecHub = IexecHub(IEXEC_HUB_BELLECOUR); }\n\t\telse if (_getCodeSize(IEXEC_HUB_VIVIANI  ) > 0) { iexecHub = IexecHub(IEXEC_HUB_VIVIANI  ); }\n\t\telse                                            { revert(\"invalid-hub-address\");            }\n\t\tiexecClerk = IexecClerk(iexecHub.iexecclerk());\n\t}\n\n\tfunction _getCodeSize(address _addr)\n\tinternal view returns (uint _size)\n\t{\n\t\tassembly { _size := extcodesize(_addr) }\n\t}\n}\n",
  "sourcePath": "/home/amxx/Work/iExec/code/PoCo-interface/contracts/IexecInterface.sol",
  "compiler": {
    "name": "solc",
    "version": "0.5.8+commit.23d335f2.Emscripten.clang"
  },
  "schemaVersion": "3.0.16",
  "updatedAt": "2019-11-05T13:33:37.803Z",
  "devdoc": {
    "methods": {}
  },
  "userdoc": {
    "methods": {}
  }
}